:100000000C9462000C948A000C948A000C948A0070
:100010000C948A000C948A000C948A000C948A0038
:100020000C948A000C948A000C948A000C946C0244
:100030000C948A000C948A000C948A000C948A0018
:100040000C94F2070C948A000C948A000C948A0099
:100050000C948A000C948A000C948A000C948A00F8
:100060000C942D030C948A0000000000240027004B
:100070002A0000000000250028002B0000000000DE
:1000800023002600290004040404040404040202DA
:100090000202020203030303030301020408102007
:1000A0004080010204081020010204081020000012
:1000B0000008000201000003040700000000000027
:1000C0000000521011241FBECFEFD8E0DEBFCDBF1D
:1000D00012E0A0E0B1E0ECEFF7E202C005900D9273
:1000E000A030B107D9F723E0A0E0B2E001C01D9233
:1000F000AC32B207E1F710E0C2E6D0E004C02197CD
:10010000FE010E94E111C136D107C9F70E94D10B4F
:100110000C94FC130C940000DC01ED91FC9106841E
:10012000F785E02D41E0099581E090E0089508957C
:10013000089585ED8093BC008091BC0084FDFCCFC8
:100140001092B302089540912202262F30E0240F2E
:10015000311D21323105DCF42091B3022430C9F481
:10016000FC0180E090E0861758F430912202219142
:10017000DC01A050BE4FA30FB11D2C930196F3CF0D
:1001800080912202680F6093220280E0089581E04E
:10019000089582E008950895E091B5028091B40237
:1001A000E81730F4F0E0EA54FD4F808190E00895C4
:1001B0008FEF9FEF08959091B5028091B402981748
:1001C00050F4E92FF0E0EA54FD4F208130E09F5FCA
:1001D0009093B50202C02FEF3FEFC90108958091BF
:1001E000B40290E02091B502821B91090895CF924C
:1001F000DF92EF92FF920F931F93CF93DF937C01D7
:10020000262F972F8A018091D802882391F0C62F3C
:10021000D72F6E01C40ED51ECC15DD0571F0699186
:10022000D701ED91FC910190F081E02DC701099576
:10023000F3CF642F822F0E94A300C801DF91CF91DA
:100240001F910F91FF90EF90DF90CF900895CF9383
:10025000DF931F92CDB7DEB769832091D8022223A6
:10026000D1F02091D602203240F021E030E0FC01B4
:100270003383228380E090E015C08091D702E82F7D
:10028000F0E0E359FD4F998190838F5F8093D7020F
:100290008093D60205C061E0CE0101960E94A300C2
:1002A00081E090E00F90DF91CF910895089580E074
:1002B00090E00895DC01ED91FC910684F785E02D36
:1002C00040E009940F931F93CF93DF93EC014230EA
:1002D00018F08C8188608C834F836887222329F0F3
:1002E000413019F48C8184608C8364E670E080E096
:1002F00090E00E94B8076C8164FD31C0E881F9810B
:100300000684F785E02D42E063E0CE0109958BE499
:1003100096E40197F1F7E881F9810684F785E02DED
:1003200042E063E0CE01099503E512E0C8010197C0
:10033000F1F7E881F9810684F785E02D42E063E07A
:10034000CE010995C8010197F1F7E881F98106848A
:10035000F785E02D42E062E0CE01099517C06062AA
:10036000CE010E945A018BE496E40197F1F76C816B
:100370006062CE010E945A0103E512E0C8010197B4
:10038000F1F76C816062CE010E945A01C8010197A9
:10039000F1F76C816062CE010E945A018BEE90E011
:1003A0000197F1F784E08D836CE0CE010E945A0141
:1003B00061E0CE010E945A018BE39FE10197F1F7C2
:1003C00082E08E8366E0CE010E945A01E881F981C5
:1003D0000484F585E02D6FEFCE01DF91CF911F9161
:1003E0000F910994CF93DF93FC012381222391F095
:1003F000EC01818180956823608382810E941909C4
:10040000688189ED92E00E9427010E946A09282FE5
:1004100030E002C020E030E081E090E0232B11F0DA
:1004200080E090E0DF91CF910895FF920F931F93AA
:10043000CF93DF93EC01162F042FF22E8B85888B40
:100440001092B5021092B4021092D7021092D60206
:100450001092B30281E08093B2021092AD0261E08B
:1004600082E10E944C0761E083E10E944C07809189
:10047000B9008E7F8093B9008091B9008D7F809301
:10048000B90088E48093B80085E48093BC00888933
:100490000E9419090E946A0991E0811190E0998BEC
:1004A000992329F089ED92E00E94DB008E878989EB
:1004B000882339F01F861C8260E0CE010E960E94D0
:1004C000F2012F2D402F612FCE01DF91CF911F918F
:1004D0000F91FF900C9462011F920F920FB60F9232
:1004E00011242F933F934F935F936F937F938F9339
:1004F0009F93AF93BF93EF93FF938091470287FF42
:1005000005C010928500109284001BC02091470204
:10051000022E000C330B8091090390E02817390755
:1005200084F480914702082E000C990BFC01EE0F19
:10053000FF1F8E0F9F1FFC01EB51FD4F808186FD39
:1005400015C0809147028F5F809347022091470238
:10055000022E000C330B8091090390E02817390715
:10056000C4F4809147028C3064F113C0809147023B
:10057000082E000C990BFC01EE0FFF1F8E0F9F1F22
:10058000FC01EB51FD4F808160E08F730E944C07AE
:10059000D8CF8091840090918500049680349C4946
:1005A00018F480E49CE905C0809184009091850056
:1005B000049690938900809388008FEF8093470280
:1005C0003BC0209184003091850080914702082E25
:1005D000000C990BFC01EE0FFF1F8E0F9F1FFC01FB
:1005E000EB51FD4F81819281820F931F909389007F
:1005F0008093880080914702082E000C990BFC0123
:10060000EE0FFF1F8E0F9F1FFC01EB51FD4F8081EE
:1006100086FF12C080914702082E000C990BFC0146
:10062000EE0FFF1F8E0F9F1FFC01EB51FD4F8081CE
:1006300061E08F730E944C07FF91EF91BF91AF91E2
:100640009F918F917F916F915F914F913F912F91EA
:100650000F900FBE0F901F9018951F920F920FB61C
:100660000F9211242F933F934F935F936F937F9338
:100670008F939F93AF93BF93EF93FF938091B900B4
:10068000887F803609F49CC068F5883209F45BC025
:1006900090F4803109F454C038F4882309F4F6C08A
:1006A000883009F44DC0F6C0883109F44CC080325E
:1006B00009F45DC0EFC0803409F468C048F48033A9
:1006C00009F455C0883309F0E5C08093B102D8C061
:1006D000803509F44FC0883509F45DC0883409F0CD
:1006E000D9C0D6C0883909F4C7C0A8F4883709F43E
:1006F00067C038F4883609F463C0803709F460C0F5
:10070000C9C0883809F4B8C0803909F45FC080389E
:1007100009F0C0C05BC0803B09F486C038F4803A61
:1007200009F466C0883A09F47FC0B4C0803C09F47B
:10073000A7C0883C09F4A4C0883B09F48AC0AAC0B9
:100740008091AE0210C09091B0028091AF029817D4
:1007500070F5E091B00281E08E0F8093B002F0E07E
:10076000E357FD4F80818093BB0085EC86C080936A
:10077000B1028EC0E091B00281E08E0F8093B00292
:100780008091BB00F0E0E357FD4F80839091B00271
:100790008091AF026EC0E091B00281E08E0F809335
:1007A000B0028091BB00F0E0E357FD4F8083809161
:1007B000B20281116DC081E08093AD0284EA61C014
:1007C00083E08093B30210924602CFCF809146021D
:1007D000803208F051C0E091460281E08E0F809394
:1007E00046028091BB00F0E0EA5DFD4F8083BDCF03
:1007F00085EC8093BC001092B30280914602803257
:1008000030F4E0914602F0E0EA5DFD4F1082609125
:10081000460270E0E0912402F091250286E292E027
:1008200009951092460236C084E08093B30210927C
:10083000230210922202E0912002F09121020995F8
:1008400080912202811105C081E0809322021092E2
:100850000002E091230281E08E0F80932302F0E0FA
:10086000E050FE4F80818093BB00909123028091E5
:100870002202981708F479CF85E88093BC000AC05B
:1008800085EC8093BC001092B30204C01092B102B8
:100890000E949900FF91EF91BF91AF919F918F912D
:1008A0007F916F915F914F913F912F910F900FBE6C
:1008B0000F901F9018950C9405110C94FD1060E09A
:1008C00080E00E94D6088CE291E00E94C40861E0BA
:1008D00080E00E94D6088CE291E00C94C408CF938B
:1008E000C82F0E945F0460E080E00E94D6088091DB
:1008F00024038C3008F051C061E088E00E947C073E
:1009000080912403E82FF0E09F01220F331FE20FB4
:10091000F31FEB51FD4F9081907C98609083109273
:100920002503109226036CE00E94AD119CE0899F84
:10093000B001112440E050E09A01260F371FF90161
:10094000EE0FFF1F2E0F3F1FF901EB51FD4F90815E
:1009500096FD16C04F5F5F4F4C30510569F781110E
:100960000FC01092800082E0809381001092850079
:1009700010928400B19A80916F00826080936F0022
:10098000E0912403F0E0CF01880F991FE80FF91FD1
:10099000EB51FD4F80818064808368EC70E080E0E3
:1009A00090E00E94B807CC2369F08DE391E00E94AB
:1009B000C40880E090E00E94820A81E080935402A3
:1009C00061E00BC088E491E00E94C4088EE690E0EC
:1009D0000E94820A1092540260E080E090E00E943F
:1009E0005B0468EB7BE080E090E00E94B807E09158
:1009F0002403F0E0CF01880F991FE80FF91FEB5196
:100A0000FD4F80818F7B8083CF910895AF92BF92FD
:100A1000CF92DF92EF92FF920F931F93CF93DF93CA
:100A2000CDB7DEB72C970FB6F894DEBF0FBECDBFA3
:100A30008C017B016A0159010E945F0460E080E043
:100A40000E94D60865E571E0CE0101960E94BC0BBC
:100A5000B701CE0101960E943F0B6DEF71E00E943D
:100A6000260BBC01CE0107960E94A20BCE01079671
:100A70000E941009CE0107960E94650BCE010196D7
:100A80000E94650B61E080E00E94D608000F111FF4
:100A9000085B1D4FF801608171814AE0CE0101962B
:100AA0000E946A0BCE0101960E941009CE010196A8
:100AB0000E94650B89E00E9423070197B1F48AE048
:100AC0000E942307892B89F48BE00E942307892B3E
:100AD00061F4F801808191810196C816D9060CF065
:100AE00062C0F801B182A0821DC089E00E94230784
:100AF000892B09F05BC08AE00E942307019709F067
:100B000055C08BE00E942307892B09F04FC0F801E4
:100B10008081918101978A159B050CF044C0F801F2
:100B2000D182C0820E945F0460E080E00E94D6080B
:100B300065E571E0CE0101960E94BC0BB701CE01C4
:100B400001960E943F0B6DEF71E00E94260BBC01E5
:100B5000CE0107960E94A20BCE0107960E941009B3
:100B6000CE0107960E94650BCE0101960E94650B8F
:100B700061E080E00E94D608F801608171814AE05E
:100B8000CE0101960E946A0BCE0101960E941009C7
:100B9000CE0101960E94650B66E970E080E090E06E
:100BA0000E94B80787CF91838083BCCF89E00E94E1
:100BB0002307892B09F07ECF8AE00E942307892B27
:100BC00009F078CF8BE00E942307019709F072CFDC
:100BD0002C960FB6F894DEBF0FBECDBFDF91CF913C
:100BE0001F910F91FF90EF90DF90CF90BF90AF904B
:100BF0000895282F8D7F813011F1253001F199EF73
:100C0000920F9230E0F02A30D1F02C30C1F08430D5
:100C1000C9F08930B9F0822F837031F4822F64E6F5
:100C20000E94AD11911111C0822F90E060E971E036
:100C30000E94B911892B49F08CE190E008958FE171
:100C400090E008958EE190E008958DE190E00895A0
:100C5000CF92DF92EF92FF920F931F93CF93DF9388
:100C60006C017A018B01C0E0D0E0CE15DF0589F080
:100C7000D8016D918D01D601ED91FC910190F0812B
:100C8000E02DC6010995892B11F47E0102C0219641
:100C9000ECCFC701DF91CF911F910F91FF90EF90A3
:100CA000DF90CF900895833081F028F4813099F05F
:100CB0008230A1F008958730A9F08830B9F08430EF
:100CC000D1F4809180008F7D03C0809180008F7768
:100CD00080938000089584B58F7702C084B58F7D9E
:100CE00084BD08958091B0008F7703C08091B000DB
:100CF0008F7D8093B00008953FB7F89480915A0299
:100D000090915B02A0915C02B0915D0226B5A89B18
:100D100005C02F3F19F00196A11DB11D3FBFBA2F8D
:100D2000A92F982F8827820F911DA11DB11DBC01ED
:100D3000CD0142E0660F771F881F991F4A95D1F7B2
:100D4000089521E001C0220F6A95EAF7DC011C96A4
:100D50002C931C971A965C934E931997ED91FC91E6
:100D60000484F585E02D60E009940E94DE13EF9283
:100D7000FF920F931F93CF938C01FC01759684E033
:100D8000C0E060FF02C09081C92B6695815031960A
:100D90008111F7CF413011F4F8014489F8018585BC
:100DA000C82BC42B7801FEE0EF0EF11CF80162891C
:100DB0006C2BC7010E94F201F801628960956C23D7
:100DC000C701CF911F910F91FF90EF900C94F2010A
:100DD0000F931F93CF93DF93062F0F70423019F4B8
:100DE00040E0602F10C0142F262FEC0130E0B90135
:100DF00084E0759567958A95E1F7CE010E94B70664
:100E0000412F602FCE01DF91CF911F910F910C9454
:100E1000B706FC0184858823A9F021853285211538
:100E2000310519F4611106C007C02130310521F4E4
:100E3000611102C0858701C015866585CF010E96B8
:100E40000C94F2010895CF93DF93282F30E0F9013D
:100E5000E255FF4F8491F901E656FF4FD491F90115
:100E6000EA57FF4FC491CC2391F081110E945306A1
:100E7000EC2FF0E0EE0FFF1FE458FF4FA591B49167
:100E8000EC91ED2381E090E021F480E002C080E06D
:100E900090E0DF91CF9108951F93CF93DF93282F98
:100EA00030E0F901E255FF4F8491F901E656FF4F1A
:100EB000D491F901EA57FF4FC491CC23C9F0162F02
:100EC00081110E945306EC2FF0E0EE0FFF1FEE5849
:100ED000FF4FA591B4918FB7F894111105C09C9163
:100EE000ED2FE095E92302C0EC91ED2BEC938FBF41
:100EF000DF91CF911F910895CF93DF9390E0FC0194
:100F0000E656FF4F2491FC01EA57FF4F8491882356
:100F100061F190E0880F991FFC01E859FF4FC591DE
:100F2000D491FC01EE58FF4FA591B491611109C015
:100F30009FB7F8948881209582238883EC912E2393
:100F40000BC0623061F49FB7F8943881822F80958E
:100F500083238883EC912E2B2C939FBF06C08FB7E1
:100F6000F894E8812E2B28838FBFDF91CF910895CD
:100F70008F929F92AF92BF92CF92DF92EF92FF92A9
:100F80006B017C010E947C064B015C01C114D10401
:100F9000E104F104F1F00E947C06DC01CB01881928
:100FA0009909AA09BB09883E9340A105B10570F3D0
:100FB00021E0C21AD108E108F10888EE880E83E02A
:100FC000981EA11CB11CC114D104E104F10419F74D
:100FD000DDCFFF90EF90DF90CF90BF90AF909F90CC
:100FE0008F9008951F920F920FB60F9211242F9396
:100FF0003F938F939F93AF93BF93809156029091AD
:101000005702A0915802B09159023091550223E045
:10101000230F2D3720F40196A11DB11D05C026E830
:10102000230F0296A11DB11D2093550280935602F5
:1010300090935702A0935802B093590280915A029C
:1010400090915B02A0915C02B0915D020196A11D9E
:10105000B11D80935A0290935B02A0935C02B093FF
:101060005D02BF91AF919F918F913F912F910F9012
:101070000FBE0F901F9018950F931F93CF93DF9380
:10108000EC0188819981009729F02A813B812617FC
:10109000370788F48B016F5F7F4F0E94141300970E
:1010A00061F0998388831B830A832C813D81232BE4
:1010B00011F4FC01108281E001C080E0DF91CF914A
:1010C0001F910F910895EF92FF920F931F93CF936B
:1010D000DF93FC01248135816115710511F480E0F5
:1010E00019C041155105A9F07B01EC018A01020FDD
:1010F000131FB8010E943C08882389F32881398195
:101100008C819D81B701820F931F0E94F5131D836F
:101110000C8381E0DF91CF911F910F91FF90EF90B1
:101120000895CF93DF93EC0188819981009711F0A6
:101130000E947C12198218821D821C821B821A82D4
:10114000DF91CF910895EF92FF920F931F93CF936A
:10115000DF93EC017B018A01BA010E943C088111F6
:1011600004C0CE010E94910807C01D830C83B70103
:10117000888199810E94F513CE01DF91CF911F9153
:101180000F91FF90EF900895009769F0FC01019096
:101190000020E9F73197AF01481B590BBC018BE0E8
:1011A00093E00C94280680E090E00895CF93DF93BD
:1011B000CDB7DEB728970FB6F894DEBF0FBECDBF10
:1011C0001D8290E49E8324E12F8324E528871982E1
:1011D0009A8390E19B8390E59C8390911203691719
:1011E00010F06FEF690F40911303262F30E0FE01DE
:1011F000E20FF31F403121F4943011F4918101C0CA
:101200009581682F690F60688BE093E028960FB690
:10121000F894DEBF0FBECDBFDF91CF910C945A0181
:10122000FC0144815581608171818BE093E00C94D5
:10123000280691E09093D802809327031092D7025A
:101240001092D60208958091B3028111FCCF81E003
:101250008093B3028093B2029FEF9093B1021092F9
:10126000B0021092AF028093AE028091AE02806D08
:101270008093AE028091AD02813061F41092AD0294
:101280008091AE028093BB008091BC0083FDF8CFBB
:1012900085EC01C085EE8093BC008091B302813063
:1012A000E1F38091B002811103C08091B00201C0CE
:1012B00081E0ADE8B2E026EB32E0F9019E2F921B0F
:1012C000981718F49D919193F9CF1092B5028093DD
:1012D000B40208952091D60290912703213208F09C
:1012E0004AC08091B3028111FCCF32E03093B30247
:1012F00031E03093B2023FEF3093B1021092B0026E
:101300002093AF02ADE6B2E04DE852E0FA013E2F85
:10131000341B321718F43D913193F9CF1092AE027D
:101320002091AE02990F922B9093AE029091AD0254
:10133000913061F41092AD029091AE029093BB0097
:101340009091BC0093FDF8CF95EC01C095EE909381
:10135000BC009091B3029230E1F39091B1029F3FB3
:1013600079F08091B102803241F08091B1028033F6
:1013700031F084E005C081E003C082E001C083E079
:101380001092D7021092D6021092D8020895682FB8
:1013900089ED92E00C94270188E60E94190980E00B
:1013A00090E00E94C7090E946A090E94230989ED02
:1013B00092E00E94DB00982F92959F708F702AE038
:1013C000929F800D1124089588E60E94190981E0FA
:1013D00090E00E94C7090E946A090E94230989EDD2
:1013E00092E00E94DB00982F92959F708F702AE008
:1013F000929F800D1124089588E60E94190982E0C9
:1014000090E00E94C7090E946A090E94230989EDA1
:1014100092E00E94DB009C0196E0369527959A9514
:10142000E1F7217020936C02382F3F70222371F076
:1014300085FB992790F990936B0284FB222720F972
:10144000220F822F880F880F820F09C0982F969540
:10145000969596959670892F880F880F890F830F20
:10146000089588E60E94190984E090E00E94C70967
:101470000E946A090E94230989ED92E00E94DB0024
:10148000982F92959F708F702AE0929F800D112463
:10149000089588E60E94190985E090E00E94C70936
:1014A0000E946A090E94230989ED92E00E94DB00F4
:1014B000982F991F9927991F90936A02982F9695B4
:1014C000969596959E70292F220F220F920F8F705E
:1014D000890F089588E60E94190986E090E00E942D
:1014E000C7090E946A090E94230989ED92E00E94BF
:1014F000DB00982F92959F708F702AE0929F800D4D
:1015000011240895CF92DF92EF92FF92DC01A03276
:1015100082E0B8070CF03EC0B7FD06C0A53BB105A0
:101520002CF0A4EBB0E002C0A0E0B0E08091250375
:1015300028E830E06901C81AD10887FDD394CC0CA3
:10154000DD1CCC0CDD1C0D2C000CEE08FF0880917E
:10155000260328E532E0281B310987FD3395220F49
:10156000331F220F331FA901330F660B770B9A012C
:10157000AB012C193D094E095F090E943D1124EB76
:1015800030E040E050E00E941311C20ED31EE41E72
:10159000F51ED601909124039C3098F58091250387
:1015A00048E850E0481B510987FD5395440F551FEB
:1015B000440F551FA417B5078CF08091260328E52A
:1015C00032E0281B310987FD3395220F331F220F8C
:1015D000331FAD012A173B070CF4A90142505109F2
:1015E000440F551F2FB7F894892F90E0FC01EE0FA0
:1015F000FF1F8E0F9F1FFC01EB51FD4F5283418354
:101600002FBFFF90EF90DF90CF900895E0910B03F4
:10161000F0910C030190F081E02D6AE28BE093E001
:101620000994CF93DF93CBE0D3E0E881F981048480
:10163000F585E02D60E0CE0109956D816B7F6D83AE
:101640006860CE01DF91CF910C945A01CF93DF9364
:10165000EC016115710561F0FB0101900020E9F7D3
:101660003197AF01461B570B0E946308811103C0DD
:10167000CE010E949108CE01DF91CF910895CF93C2
:10168000DF93EC01FB0144815581608171810E94EF
:101690006308811103C0CE010E949108CE01DF9141
:1016A000CF910895CF93DF9300D0CDB7DEB7698394
:1016B0001A8241E050E0BE016F5F7F4F0E946308D5
:1016C0000F900F90DF91CF910895FC01808191815F
:1016D0000C947C12EF92FF920F931F93CF93DF93A2
:1016E000CDB7DEB762970FB6F894DEBF0FBECDBFA1
:1016F0008C01CB01F80111821082138212821582B3
:10170000148250E09E012F5F3F4F7901B9010E9482
:10171000BD10F70101900020E9F73197AF014E1994
:101720005F09B701C8010E94A30862960FB6F8943A
:10173000DEBF0FBECDBFDF91CF911F910F91FF9004
:10174000EF900895FB01DC0111961C921E921396F6
:101750001C921E92129715961C921E921497861731
:10176000970749F0608171816115710521F044810D
:1017700055810C94A3080895FC01118210821382F4
:101780001282158214826115710551F0FB010190DE
:101790000020E9F73197AF01461B570B0C94A308C3
:1017A0000895CF93DF93CDB7DEB72C970FB6F8949B
:1017B000DEBF0FBECDBF789484B5826084BD84B592
:1017C000816084BD85B5826085BD85B5816085BD3C
:1017D00080916E00816080936E00109281008091F4
:1017E000810082608093810080918100816080937C
:1017F0008100809180008160809380008091B100A1
:1018000084608093B1008091B00081608093B000CB
:1018100080917A00846080937A0080917A0082605F
:1018200080937A0080917A00816080937A00809121
:101830007A00806880937A001092C10060E08CE0AA
:101840000E947C0760E089E00E947C0760E08AE0FB
:101850000E947C0760E08BE00E947C0720E042E071
:1018600060E18BE093E00E9415020E94110B88E674
:101870000E94190982E090E00E94C7090E946A094B
:101880000E94230989ED92E00E94DB00182F88E670
:101890000E94190982E090E00E94C709612F6F7BC6
:1018A00089ED92E00E9427010E946A0980E090E0A1
:1018B0000E945D0491E0811101C090E09093540278
:1018C0009923C1F18AE090E00E945D0490E080538A
:1018D000984F909349028093480284E190E00E94DF
:1018E0005D0490E090934B0280934A028EE190E079
:1018F0000E945D0490E090934D0280934C0288E238
:1019000090E00E945D0490E090934F0280934E021D
:1019100082E390E00E945D0490E0909351028093F6
:1019200050028CE390E00E945D0490E0909353029B
:101930008093520280E3E82E88EFF82E90E0C92EC3
:1019400090E0D92E8CE00E942307019709F02DC367
:1019500060911003862F8460809310036C608BE08D
:1019600093E00E945A01E0910B03F0910C03048470
:10197000F585E02D6FEF8BE093E0099589E00E94FB
:101980002307019709F053C08AE00E942307892B9F
:1019900009F04DC08BE00E942307019709F047C072
:1019A0000BC361E0802F0E94D60889E00E942307C4
:1019B000019709F418C389E00E942307892B09F4D1
:1019C0001EC389E00E942307892B09F424C30A302F
:1019D00011053CF30E945F0460E080E00E94D6089D
:1019E0008D819E81892B09F432C36AE571E089817A
:1019F0009A810E94EC13892B09F029C385E691E0B6
:101A00000E94C40861E080E00E94D6088EE691E062
:101A10000E94C40868EB7BE080E090E00E94B80779
:101A200080E00E946F04CE0101960E94650B8091B8
:101A300054028111FAC00E946A0A90E08053984FC4
:101A400090934902809348020E94490A90E0909343
:101A50004B0280934A020E94310A90E090934D021B
:101A600080934C020E94FC0990E090934F02809377
:101A70004E020E94E40990E090935102809350023C
:101A80000E94CC0990E090935302809352026CE83C
:101A900071E0CE0101960E94BC0B20E030E04FE0E7
:101AA00057E2BE016F5F7F4F80E090E00E94060525
:101AB000CE0101960E94650B64EF71E080E090E03A
:101AC0000E94B80761E971E0CE0101960E94BC0B4B
:101AD00021E030E04CE050E0BE016F5F7F4F81E0DD
:101AE00090E00E940605CE0101960E94650B64EF0E
:101AF00071E080E090E00E94B80780914A020E9465
:101B0000F9058C0167E971E0CE0101960E94BC0BDA
:101B100021E030E0A801BE016F5F7F4F82E090E0DE
:101B20000E940605CE0101960E94650B64EF71E0EC
:101B300080E090E00E94B8076BE971E0CE01019669
:101B40000E94BC0B20E030E047E150E0BE016F5F37
:101B50007F4F83E090E00E940605CE0101960E942F
:101B6000650B64EF71E080E090E00E94B80760EAE6
:101B700071E0CE0101960E94BC0B20E030E04CE306
:101B800050E0BE016F5F7F4F84E090E00E94060549
:101B9000CE0101960E94650B64EF71E080E090E059
:101BA0000E94B80767EA71E0CE0101960E94BC0B63
:101BB00020E030E04CE350E0BE016F5F7F4F85E0F6
:101BC00090E00E940605CE0101960E94650B0E94DE
:101BD0005F0460E080E00E94D60860914802605D8A
:101BE0008AE090E00E945B0460914A0284E190E008
:101BF0000E945B0460914C028EE190E00E945B04C5
:101C000060914E0288E290E00E945B046091500275
:101C100082E390E00E945B04609152028CE390E0CA
:101C20000E945B0481E00E946F04009152021091B7
:101C300053020E94CC09081B1109109369020093FA
:101C40006802A0905002B09051020E94E4099501F0
:101C5000281B3109C90117FD05C030936702209385
:101C600066020BC001979093670280936602045C42
:101C70001F4F109369020093680200914E02109169
:101C80004F020E94FC099801281B3109C9013093B9
:101C9000650220936402209166023091670237FF4B
:101CA0000BC001979093650280936402245C3F4FC0
:101CB000309367022093660200914C0210914D020E
:101CC0000E94310A9801281B3109C901309363022F
:101CD00020936202209164023091650237FF0BC0AD
:101CE00001979093630280936202285E3F4F309386
:101CF00065022093640200914A0210914B020E94F7
:101D0000490A9801281B310930936102209360022F
:101D1000009162021091630217FF10C02150310937
:101D200030936102209360020E94490A0E94F905E3
:101D3000800F911F9093630280936202009148028A
:101D4000109149020E946A0A9701281B3109C901B2
:101D5000800F911F90935F0280935E02209160023A
:101D60003091610237FF0BC0019790935F0280931F
:101D70005E02245F3F4F30936102209360028091A6
:101D80005E0290915F0297FF1AC060E080E00E94BF
:101D9000D6088EEA91E00E94C40861E080E00E94CB
:101DA000D6088CEB91E00E94C4086CED75E080E0F1
:101DB00090E00E94B80780E00E946F04F2C00E9489
:101DC0005F0460E080E00E94D60860915E0270913E
:101DD0005F024AE0CE0107960E946A0BBE01695F6E
:101DE0007F4FCE0101960E94A20B65EC71E0CE01FF
:101DF00001960E94260B0E941009CE0101960E94B6
:101E0000650BCE0107960E94650B61E080E00E94A1
:101E1000D60860916002709161024AE0CE01079697
:101E20000E946A0BBE01695F7F4FCE0101960E943E
:101E3000A20B6CEC71E0CE0101960E94260B0E9471
:101E40001009CE0101960E94650BCE0107960E94F3
:101E5000650B68EB7BE080E090E00E94B8070E9491
:101E60005F0460E080E00E94D60860916202709199
:101E700063024AE0CE0107960E946A0BBE01695FC9
:101E80007F4FCE0101960E94A20B64ED71E0CE015E
:101E900001960E94260B0E941009CE0101960E9415
:101EA000650BCE0107960E94650B61E080E00E9401
:101EB000D60860916402709165024AE0CE010796EF
:101EC0000E946A0BBE01695F7F4FCE0101960E949E
:101ED000A20B6AED71E0CE0101960E94260B0E94D2
:101EE0001009CE0101960E94650BCE0107960E9453
:101EF000650B68EB7BE080E090E00E94B8070E94F1
:101F00005F0460E080E00E94D608609166027091F4
:101F100067024AE0CE0107960E946A0BBE01695F24
:101F20007F4FCE0101960E94A20B61EE71E0CE01BF
:101F300001960E94260B0E941009CE0101960E9474
:101F4000650BCE0107960E94650B61E080E00E9460
:101F5000D60860916802709169024AE0CE01079646
:101F60000E946A0BBE01695F7F4FCE0101960E94FD
:101F7000A20B6AEE71E0CE0101960E94260B0E9430
:101F80001009CE0101960E94650BCE0107960E94B2
:101F9000650B60EA7FE080E090E00E94B8070E9455
:101FA0005F040E945F040E94110BC114D10409F464
:101FB000C9CC0E940000C6CC6CE371E0CE01019652
:101FC0000E94BC0B60E080E00E94D60883EF91E0A5
:101FD0000E94C40868EE73E080E090E00E94B807B9
:101FE00000E010E0F4CC8AE00E942307892B09F07E
:101FF000E2CC8BE00E942307892BA1F1DCCC8AE0A4
:102000000E942307019709F0DCCC8BE00E94230794
:10201000892BC1F1D6CC8AE00E942307892B09F0D5
:10202000D6CC8BE00E942307019709F0D0CC6EE458
:10203000CE0101960E94520B0E94060B0F5F1F4FAC
:1020400064EF71E080E090E00E94B807C0CC8EE7BA
:1020500091E00E94C40868EB7BE080E090E00E9481
:10206000B807E1CC65E5CE0101960E94520B0E94B3
:10207000060B0F5F1F4F64EF71E080E090E00E945D
:10208000B80799CC64E4CE0101960E94520B0E94DD
:10209000060B0F5F1F4F64EF71E080E090E00E943D
:1020A000B8078FCC1092DC021092DB0288EE93E02E
:1020B000A0E0B0E08093DD029093DE02A093DF0207
:1020C000B093E0028AE091E09093DA028093D90223
:1020D000809109038C30A0F491E0980F909309034C
:1020E0008093240390E0FC01EE0FFF1F8E0F9F1FD3
:1020F000FC01EB51FD4F88EB9BE09283818303C091
:102100008FEF8093240310920E0310920D038CE145
:1021100091E090930C0380930B0310921B038FEFBD
:1021200080931A031092190310921C038FE380937B
:1021300016031092170310921803109215031092B1
:10214000140384E080931D0382E080931E0381E0EA
:1021500080931F0380E18093200380E2809321031A
:1021600080E48093220380E88093230340E050E0E2
:1021700063E08BE093E00C94A1064532510520F416
:10218000423010F00C94C810FB011082CB0108956E
:10219000BB274A3031F4992322F4BDE29095819512
:1021A0009F4F0C94D410BB27FB015527AA27880FFB
:1021B000991FAA1FA41710F0A41B83955051B9F7BB
:1021C000A05DAA3308F0A95DA193009779F7B1113A
:1021D000B1931192CB010C94ED10DC01FC01672F3F
:1021E00071917723E1F7329704C07C916D937083EE
:1021F0006291AE17BF07C8F30895F999FECF92BD5B
:1022000081BDF89A992780B50895262FF999FECFB8
:102210001FBA92BD81BD20BD0FB6F894FA9AF99A03
:102220000FBE01960895052E97FB1EF400940E94A0
:102230002A1157FD07D00E947C1107FC03D04EF4F1
:102240000C942A1150954095309521953F4F4F4F52
:102250005F4F089590958095709561957F4F8F4F52
:102260009F4F08950E949E11A59F900DB49F900DC1
:10227000A49F800D911D11240895B7FF0C94321175
:102280000E943211821B930B08952F923F924F921E
:102290005F926F927F928F929F92AF92BF92CF92F6
:1022A000DF92EF92FF920F931F93CF93DF93CDB7FF
:1022B000DEB7CA1BDB0B0FB6F894DEBF0FBECDBF77
:1022C00009942A88398848885F846E847D848C8448
:1022D0009B84AA84B984C884DF80EE80FD800C8151
:1022E0001B81AA81B981CE0FD11D0FB6F894DEBF34
:1022F0000FBECDBFED010895A1E21A2EAA1BBB1B94
:10230000FD010DC0AA1FBB1FEE1FFF1FA217B307C1
:10231000E407F50720F0A21BB30BE40BF50B661FD7
:10232000771F881F991F1A9469F76095709580959B
:1023300090959B01AC01BD01CF010895A29FB00112
:10234000B39FC001A39F700D811D1124911DB29FE9
:10235000700D811D1124911D0895991B79E004C011
:10236000991F961708F0961B881F7A95C9F78095D4
:10237000089597FB072E16F4009407D077FD09D037
:102380000E94CD1107FC05D03EF4909581959F4F9A
:102390000895709561957F4F0895AA1BBB1B51E16D
:1023A00007C0AA1FBB1FA617B70710F0A61BB70BC5
:1023B000881F991F5A95A9F780959095BC01CD016A
:1023C0000895EE0FFF1F0590F491E02D0994CF932F
:1023D000DF938230910510F482E090E0E0912A03CF
:1023E000F0912B0320E030E0C0E0D0E0309711F115
:1023F0004081518148175907C0F04817590761F4C7
:1024000082819381209719F09B838A832BC09093BC
:102410002B0380932A0326C02115310519F042179A
:10242000530718F49A01BE01DF01EF010280F38126
:10243000E02DDCCF2115310509F1281B390B2430A3
:10244000310590F412968D919C9113976115710549
:1024500021F0FB019383828304C090932B0380932C
:102460002A03FD01329644C0FD01E20FF31F819360
:102470009193225031092D933C933AC02091280327
:1024800030912903232B41F4209102013091030163
:1024900030932903209328032091000130910101FA
:1024A0002115310541F42DB73EB7409104015091FB
:1024B0000501241B350BE0912803F0912903E21755
:1024C000F307A0F42E1B3F0B2817390778F0AC0157
:1024D0004E5F5F4F2417350748F04E0F5F1F509334
:1024E0002903409328038193919302C0E0E0F0E038
:1024F000CF01DF91CF9108950F931F93CF93DF9377
:10250000009709F48CC0FC0132971382128200916B
:102510002A0310912B030115110581F420813181CB
:10252000820F931F20912803309129032817390720
:1025300079F5F0932903E093280371C0D80140E0B6
:1025400050E0AE17BF0750F412962D913C911397AF
:10255000AD012115310509F1D901F3CF9D01DA0152
:102560003383228360817181860F971F82179307BF
:1025700069F4EC0128813981260F371F2E5F3F4F08
:10258000318320838A819B8193838283452B29F425
:10259000F0932B03E0932A0342C01396FC93EE932F
:1025A0001297ED01499159919E01240F351FE217B1
:1025B000F30771F480819181840F951F0296119623
:1025C0009C938E938281938113969C938E93129702
:1025D000E0E0F0E0D80112968D919C91139700975E
:1025E00019F0F8018C01F6CF8D919C9198012E5F26
:1025F0003F4F820F931F2091280330912903281702
:10260000390769F4309729F410922B0310922A03AA
:1026100002C0138212821093290300932803DF91D2
:10262000CF911F910F910895A0E0B0E0EAE1F3E1AE
:102630000C944911EC01009721F4CB010E94E711A1
:10264000B8C0FC01E60FF71F9C0122503109E217C8
:10265000F30708F4ACC0D9010D911C91119706172E
:102660001707B0F00530110508F49FC0C8010497A2
:102670008617970708F499C002501109061B170B1B
:10268000019311936D937C93CF010E947C128DC0B6
:102690005B01A01AB10A4C01800E911EA0912A0381
:1026A000B0912B0340E050E0E12CF12C109709F49D
:1026B0004AC0A815B905D1F56D907C9011976301BA
:1026C00082E0C80ED11CCA14DB0480F1A3014A19B0
:1026D0005B096A0182E0C80ED11C1296BC90129769
:1026E0001396AC91B5E0CB16D10440F0B282A3832F
:1026F00051834083D9016D937C930AC00E5F1F4FB5
:10270000C301800F911FF90191838083EB2DFA2F74
:10271000E114F10431F0D7011396FC93EE93129774
:1027200044C0F0932B03E0932A033FC08D919C910A
:1027300011974817590708F4AC017D0112960D90C6
:10274000BC91A02DB3CF80912803909129038815C7
:102750009905E1F446175707C8F48091000190915C
:102760000101009741F48DB79EB74091040150914B
:102770000501841B950BE817F907C8F4F0932903AA
:10278000E0932803F901718360830FC0CB010E949D
:10279000E7117C01009759F0A801BE010E94E313E4
:1027A000CE010E947C12C70104C0CE0102C080E0AD
:1027B00090E0CDB7DEB7EEE00C94651181E090E0DB
:1027C000F8940C94FC13FB01DC0102C001900D9203
:1027D00041505040D8F70895FB01DC018D910190E4
:1027E00080190110D9F3990B0895FB01DC010190C8
:0C27F0000D920020E1F70895F894FFCF4F
:1027FC0000002C038000000000002701F7005701A7
:10280C00CB00EF00DB00CC00000000008C002806A1
:10281C00570156011502A1060907E80620202020C1
:10282C00202020202020202020202020004C6F63FE
:10283C006B696E672E2E2E00556E6C6F636B696E16
:10284C00672E2E2E00536574200055554E444E4E67
:10285C0044554E440041636365707465640057656C
:10286C006C636F6D652057696C6C69616D004163B9
:10287C00636573732044656E6965640059656172A4
:10288C00004D6F6E74680044617900486F7572007A
:10289C004D696E757465005365636F6E64004461B9
:1028AC0074652052656163686564210057656C63CB
:1028BC006F6D65210020596561727300204D6F6E3C
:1028CC007468730020446179730020486F757273CB
:1028DC0000204D696E7574657300205365636F6ECF
:1028EC00647300456E74657220436F64653A000032
:107800000C94343C0C94513C0C94513C0C94513CE1
:107810000C94513C0C94513C0C94513C0C94513CB4
:107820000C94513C0C94513C0C94513C0C94513CA4
:107830000C94513C0C94513C0C94513C0C94513C94
:107840000C94513C0C94513C0C94513C0C94513C84
:107850000C94513C0C94513C0C94513C0C94513C74
:107860000C94513C0C94513C11241FBECFEFD8E036
:10787000DEBFCDBF11E0A0E0B1E0ECE9FFE702C060
:1078800005900D92A230B107D9F712E0A2E0B1E065
:1078900001C01D92AD30B107E1F70E942D3D0C945F
:1078A000CC3F0C94003C982F959595959595959582
:1078B000905D8F708A307CF0282F295A8091C0000B
:1078C00085FFFCCF9093C6008091C00085FFFCCF60
:1078D0002093C6000895282F205DF0CF982F809127
:1078E000C00085FFFCCF9093C6000895EF92FF92F1
:1078F0000F931F93EE24FF2487018091C00087FD22
:1079000017C00894E11CF11C011D111D81E4E8164B
:1079100082E4F8068FE0080780E0180770F3E09132
:107920000401F091050109958091C00087FFE9CF1E
:107930008091C6001F910F91FF90EF9008950E94D3
:10794000763C982F8091C00085FFFCCF9093C600B5
:1079500091362CF490330CF09053892F089597555D
:10796000892F08951F930E949F3C182F0E949F3CCF
:107970001295107F810F1F9108951F93182F882350
:1079800021F00E94763C1150E1F71F9108951F935A
:10799000182F0E94763C803249F0809103018F5F5E
:1079A000809303018530C1F01F9108958091C0003C
:1079B00085FFFCCF84E18093C6008091C00085FFE5
:1079C000FCCF1093C6008091C00085FFFCCF80E102
:1079D0008093C6001F910895E0910401F091050184
:1079E00009951F9108950E94763C803241F0809164
:1079F00003018F5F80930301853081F008958091AA
:107A0000C00085FFFCCF84E18093C6008091C00058
:107A100085FFFCCF80E18093C6000895E0910401CA
:107A2000F09105010995089540E951E08823A1F0FE
:107A30002D9A28EE33E0FA013197F1F721503040CA
:107A4000D1F72D9828EE33E0FA013197F1F7215064
:107A50003040D1F7815061F708953F924F925F9285
:107A60006F927F928F929F92AF92BF92CF92DF924E
:107A7000EF92FF920F931F93CF93DF93000080E16B
:107A80008093C4001092C50088E18093C10086E015
:107A90008093C2005098589A259A81E00E94143D24
:107AA00024E1F22E9EE1E92E85E9D82E0FE0C02ECA
:107AB00010E1B12EAA24A394B1E49B2EA6E58A2E50
:107AC000F2E57F2EE0E26E2E79E4572E63E5462E36
:107AD00050E5352E0E94763C8033B1F18133B9F107
:107AE000803409F46FC0813409F476C0823409F41B
:107AF00085C0853409F488C0803531F1823521F1A3
:107B0000813511F1853509F485C0863509F48DC0BC
:107B1000843609F496C0843709F403C1853709F423
:107B200072C1863709F466C0809103018F5F80932C
:107B30000301853079F6E0910401F0910501099582
:107B40000E94763C803351F60E94F33CC3CF0E94E2
:107B5000763C803249F78091C00085FFFCCFF092DF
:107B6000C6008091C00085FFFCCF9092C600809136
:107B7000C00085FFFCCF8092C6008091C00085FFC9
:107B8000FCCF7092C6008091C00085FFFCCF609250
:107B9000C6008091C00085FFFCCF5092C600809146
:107BA000C00085FFFCCF4092C6008091C00085FFD9
:107BB000FCCF3092C6008091C00085FFFCCFB09210
:107BC000C60088CF0E94763C863808F4BDCF0E945C
:107BD000763C0E94F33C7ECF0E94763C803809F4CC
:107BE0009CC0813809F40BC1823809F43CC1883942
:107BF00009F48FC080E00E94C73C6CCF84E10E94F2
:107C0000BD3C0E94F33C66CF85E00E94BD3C0E94D3
:107C1000F33C60CF0E94763C809306010E94763C44
:107C2000809307010E94F33C55CF0E94763C80333D
:107C300009F41DC183E00E94BD3C80E00E94C73C66
:107C400049CF0E94763C809309020E94763C809343
:107C5000080280910C028E7F80930C020E94763C79
:107C6000853409F415C18091080290910902892B8D
:107C700089F000E010E00E94763CF801E85FFE4FDA
:107C800080830F5F1F4F80910802909109020817AF
:107C9000190788F30E94763C803209F045CF809125
:107CA0000C0280FF01C16091060170910701660F0F
:107CB000771F7093070160930601A0910802B091AD
:107CC00009021097C9F0E8E0F1E09B01AD014E0F09
:107CD0005F1FF999FECF32BD21BD819180BDFA9A17
:107CE000F99A2F5F3F4FE417F50799F76A0F7B1F4B
:107CF00070930701609306018091C00085FFFCCF5F
:107D0000F092C6008091C00085FFFCCFB092C60003
:107D1000E1CE83E00E94C73CDDCE82E00E94C73CFA
:107D2000D9CE0E94763C809309020E94763C8093D3
:107D300008028091060190910701880F991F909386
:107D40000701809306010E94763C853409F4A6C0A1
:107D500080910C028E7F80930C020E94763C8032D0
:107D600009F0B8CE8091C00085FFFCCFF092C6002C
:107D7000609108027091090261157105B9F140E046
:107D800050E080910C02A82FA170B82FB27011C0E2
:107D9000BB2309F45CC0E0910601F0910701319624
:107DA000F0930701E09306014F5F5F4F46175707B7
:107DB000E8F4AA2369F3F999FECF209106013091E6
:107DC000070132BD21BDF89A90B58091C00085FFB2
:107DD000FCCF9093C6002F5F3F4F30930701209355
:107DE00006014F5F5F4F4617570718F38091C00099
:107DF00085FDE5CE8091C00085FFF8CFE0CE81E023
:107E00000E94C73C67CE0E94763C803209F08CCE3F
:107E10008091C00085FFFCCFF092C6008091C00029
:107E200085FFFCCFE092C6008091C00085FFFCCFAB
:107E3000D092C6008091C00085FFFCCFC092C600E2
:107E40008091C00085FFFCCFB092C60043CEE09188
:107E50000601F091070194918091C00085FFFCCF4D
:107E60009093C6009CCF80E10E94C73C33CE0E9415
:107E7000763C0E94763C182F0E94763C112309F430
:107E800083C0113009F484C08FE00E94C73C22CE29
:107E900080910C02816080930C02E5CE80910C02EF
:107EA000816080930C0259CF809107018823880F4D
:107EB000880B8A2180930B02809106019091070123
:107EC000880F991F90930701809306018091080203
:107ED00080FF09C080910802909109020196909359
:107EE000090280930802F894F999FECF1127E091D6
:107EF0000601F0910701C8E0D1E08091080290915D
:107F00000902103091F40091570001700130D9F34B
:107F100003E000935700E89500915700017001308D
:107F2000D9F301E100935700E89509901990009169
:107F3000570001700130D9F301E000935700E89534
:107F40001395103498F011270091570001700130FB
:107F5000D9F305E000935700E895009157000170B0
:107F60000130D9F301E100935700E895329602976A
:107F700009F0C7CF103011F00296E5CF112480919F
:107F8000C00085FFB9CEBCCE8EE10E94C73CA2CD19
:0C7F900085E90E94C73C9ECDF894FFCF0D
:027F9C00800063
:040000030000780081
:00000001FF